:020000040000FA
:100000006004002097040000A3040000A504000081
:10001000A7040000A9040000AB04000000000000D9
:10002000000000000000000000000000AD0400001F
:10003000AF04000000000000B1040000B3040000A1
:10004000B5040000B5040000B5040000B5040000CC
:10005000B5040000B5040000B5040000B5040000BC
:10006000B5040000B5040000B5040000B5040000AC
:10007000B5040000B5040000B5040000B50400009C
:10040000FFFFFFFFFFFFFFFFFFFFFFFFFEFFFFFFFD
:1004100000F002F800F02EF80AA090E8000C8244E8
:100420008344AAF10107DA4501D100F023F8AFF2C5
:10043000090EBAE80F0013F0010F18BFFB1A43F0C2
:1004400001031847B8020000C8020000002300247E
:1004500000250026103A28BF78C1FBD8520728BFD4
:1004600030C148BF0B6070471FB500F041F91FBD98
:1004700010B510BD00F035F81146FFF7F5FF00F09C
:10048000C9F800F053F803B4FFF7F2FF03BC00F023
:100490005BF8000070470B4880470B4880470B48CB
:1004A0000047FEE7FEE7FEE7FEE7FEE7FEE7FEE7C2
:1004B000FEE7FEE7FEE7000005480649044A064B52
:1004C0007047000059050000950400001104000069
:1004D000600000206004002060000020704770472A
:1004E0007047754600F02CF8AE4605006946534645
:1004F00020F00700854618B020B5FFF7DDFFBDE806
:1005000020404FF000064FF000074FF000084FF07A
:10051000000B21F00701AC46ACE8C009ACE8C0090B
:10052000ACE8C009ACE8C0098D46704710B5044678
:10053000AFF300802046BDE81040FFF7A4BF0000E5
:10054000004870470000002001491820ABBEFEE7BC
:1005500026000200704700002148006840F4700047
:100560001F4908604CF220501E49C8814DF62810E2
:10057000C8814FF4E97008804FF488101A49486424
:100580000846406820F4403048601848006840F44D
:100590004020164908600620154908700020487060
:1005A0000846C07800F01F00C8708020114908700C
:1005B0000F48007B00F0FC000D4908730020087113
:1005C000487100BF0A48807900F010000028F9D077
:1005D00000BF0748807900F00C000028F9D170476F
:1005E00088ED00E0002005400080044000700440D9
:1005F00000400640005006400021002200BF06E0F7
:10060000002200E0521CB2F57A6FFBDB491C8142EC
:10061000F6DB70473148806B40F480602F49886377
:1006200088152F4988652F48406D40F480002D497A
:10063000486588152A4948652A48406D40F40010ED
:10064000284948652548806B40F400502349886359
:100650008815254988662548006840F08060214952
:10066000C1F8140139E01F48006C20F480001D49D6
:100670000864C820FFF7C0FF1A48006C40F48000EF
:1006800018490864C820FFF7B7FF1648006C20F42B
:10069000001014490864C820FFF7AEFF1148006C31
:1006A00040F400100F490864C820FFF7A5FF0F4869
:1006B0001438006820F080600A49C1F80001C820A1
:1006C000FFF79AFF0748D0F8000140F08060054925
:1006D000C1F80001C820FFF78FFFC4E70080044085
:1006E00000A0044000F00F4000D0044014F10F407F
:1006F0004FF04070E1EE100A704700000C07000058
:0C07000000000020600400004C04000019
:04000005000004975C
:00000001FF
